{
  "_format": "hh-sol-artifact-1",
  "contractName": "Field2FridgeAgentRegistry",
  "sourceName": "contracts/Field2FridgeAgentRegistry.sol",
  "abi": [
    {
      "inputs": [],
      "stateMutability": "nonpayable",
      "type": "constructor"
    },
    {
      "inputs": [
        {
          "internalType": "address",
          "name": "sender",
          "type": "address"
        },
        {
          "internalType": "uint256",
          "name": "tokenId",
          "type": "uint256"
        },
        {
          "internalType": "address",
          "name": "owner",
          "type": "address"
        }
      ],
      "name": "ERC721IncorrectOwner",
      "type": "error"
    },
    {
      "inputs": [
        {
          "internalType": "address",
          "name": "operator",
          "type": "address"
        },
        {
          "internalType": "uint256",
          "name": "tokenId",
          "type": "uint256"
        }
      ],
      "name": "ERC721InsufficientApproval",
      "type": "error"
    },
    {
      "inputs": [
        {
          "internalType": "address",
          "name": "approver",
          "type": "address"
        }
      ],
      "name": "ERC721InvalidApprover",
      "type": "error"
    },
    {
      "inputs": [
        {
          "internalType": "address",
          "name": "operator",
          "type": "address"
        }
      ],
      "name": "ERC721InvalidOperator",
      "type": "error"
    },
    {
      "inputs": [
        {
          "internalType": "address",
          "name": "owner",
          "type": "address"
        }
      ],
      "name": "ERC721InvalidOwner",
      "type": "error"
    },
    {
      "inputs": [
        {
          "internalType": "address",
          "name": "receiver",
          "type": "address"
        }
      ],
      "name": "ERC721InvalidReceiver",
      "type": "error"
    },
    {
      "inputs": [
        {
          "internalType": "address",
          "name": "sender",
          "type": "address"
        }
      ],
      "name": "ERC721InvalidSender",
      "type": "error"
    },
    {
      "inputs": [
        {
          "internalType": "uint256",
          "name": "tokenId",
          "type": "uint256"
        }
      ],
      "name": "ERC721NonexistentToken",
      "type": "error"
    },
    {
      "anonymous": false,
      "inputs": [
        {
          "indexed": true,
          "internalType": "uint256",
          "name": "agentId",
          "type": "uint256"
        },
        {
          "indexed": true,
          "internalType": "address",
          "name": "owner",
          "type": "address"
        },
        {
          "indexed": false,
          "internalType": "string",
          "name": "tokenURI",
          "type": "string"
        }
      ],
      "name": "AgentRegistered",
      "type": "event"
    },
    {
      "anonymous": false,
      "inputs": [
        {
          "indexed": true,
          "internalType": "address",
          "name": "owner",
          "type": "address"
        },
        {
          "indexed": true,
          "internalType": "address",
          "name": "approved",
          "type": "address"
        },
        {
          "indexed": true,
          "internalType": "uint256",
          "name": "tokenId",
          "type": "uint256"
        }
      ],
      "name": "Approval",
      "type": "event"
    },
    {
      "anonymous": false,
      "inputs": [
        {
          "indexed": true,
          "internalType": "address",
          "name": "owner",
          "type": "address"
        },
        {
          "indexed": true,
          "internalType": "address",
          "name": "operator",
          "type": "address"
        },
        {
          "indexed": false,
          "internalType": "bool",
          "name": "approved",
          "type": "bool"
        }
      ],
      "name": "ApprovalForAll",
      "type": "event"
    },
    {
      "anonymous": false,
      "inputs": [
        {
          "indexed": false,
          "internalType": "uint256",
          "name": "_fromTokenId",
          "type": "uint256"
        },
        {
          "indexed": false,
          "internalType": "uint256",
          "name": "_toTokenId",
          "type": "uint256"
        }
      ],
      "name": "BatchMetadataUpdate",
      "type": "event"
    },
    {
      "anonymous": false,
      "inputs": [
        {
          "indexed": false,
          "internalType": "uint256",
          "name": "_tokenId",
          "type": "uint256"
        }
      ],
      "name": "MetadataUpdate",
      "type": "event"
    },
    {
      "anonymous": false,
      "inputs": [
        {
          "indexed": true,
          "internalType": "address",
          "name": "from",
          "type": "address"
        },
        {
          "indexed": true,
          "internalType": "address",
          "name": "to",
          "type": "address"
        },
        {
          "indexed": true,
          "internalType": "uint256",
          "name": "tokenId",
          "type": "uint256"
        }
      ],
      "name": "Transfer",
      "type": "event"
    },
    {
      "inputs": [
        {
          "internalType": "address",
          "name": "to",
          "type": "address"
        },
        {
          "internalType": "uint256",
          "name": "tokenId",
          "type": "uint256"
        }
      ],
      "name": "approve",
      "outputs": [],
      "stateMutability": "nonpayable",
      "type": "function"
    },
    {
      "inputs": [
        {
          "internalType": "address",
          "name": "owner",
          "type": "address"
        }
      ],
      "name": "balanceOf",
      "outputs": [
        {
          "internalType": "uint256",
          "name": "",
          "type": "uint256"
        }
      ],
      "stateMutability": "view",
      "type": "function"
    },
    {
      "inputs": [
        {
          "internalType": "uint256",
          "name": "tokenId",
          "type": "uint256"
        }
      ],
      "name": "getApproved",
      "outputs": [
        {
          "internalType": "address",
          "name": "",
          "type": "address"
        }
      ],
      "stateMutability": "view",
      "type": "function"
    },
    {
      "inputs": [
        {
          "internalType": "address",
          "name": "owner",
          "type": "address"
        },
        {
          "internalType": "address",
          "name": "operator",
          "type": "address"
        }
      ],
      "name": "isApprovedForAll",
      "outputs": [
        {
          "internalType": "bool",
          "name": "",
          "type": "bool"
        }
      ],
      "stateMutability": "view",
      "type": "function"
    },
    {
      "inputs": [],
      "name": "name",
      "outputs": [
        {
          "internalType": "string",
          "name": "",
          "type": "string"
        }
      ],
      "stateMutability": "view",
      "type": "function"
    },
    {
      "inputs": [
        {
          "internalType": "uint256",
          "name": "tokenId",
          "type": "uint256"
        }
      ],
      "name": "ownerOf",
      "outputs": [
        {
          "internalType": "address",
          "name": "",
          "type": "address"
        }
      ],
      "stateMutability": "view",
      "type": "function"
    },
    {
      "inputs": [
        {
          "internalType": "string",
          "name": "tokenURI_",
          "type": "string"
        }
      ],
      "name": "register",
      "outputs": [
        {
          "internalType": "uint256",
          "name": "agentId",
          "type": "uint256"
        }
      ],
      "stateMutability": "nonpayable",
      "type": "function"
    },
    {
      "inputs": [
        {
          "internalType": "address",
          "name": "from",
          "type": "address"
        },
        {
          "internalType": "address",
          "name": "to",
          "type": "address"
        },
        {
          "internalType": "uint256",
          "name": "tokenId",
          "type": "uint256"
        }
      ],
      "name": "safeTransferFrom",
      "outputs": [],
      "stateMutability": "nonpayable",
      "type": "function"
    },
    {
      "inputs": [
        {
          "internalType": "address",
          "name": "from",
          "type": "address"
        },
        {
          "internalType": "address",
          "name": "to",
          "type": "address"
        },
        {
          "internalType": "uint256",
          "name": "tokenId",
          "type": "uint256"
        },
        {
          "internalType": "bytes",
          "name": "data",
          "type": "bytes"
        }
      ],
      "name": "safeTransferFrom",
      "outputs": [],
      "stateMutability": "nonpayable",
      "type": "function"
    },
    {
      "inputs": [
        {
          "internalType": "address",
          "name": "operator",
          "type": "address"
        },
        {
          "internalType": "bool",
          "name": "approved",
          "type": "bool"
        }
      ],
      "name": "setApprovalForAll",
      "outputs": [],
      "stateMutability": "nonpayable",
      "type": "function"
    },
    {
      "inputs": [
        {
          "internalType": "bytes4",
          "name": "interfaceId",
          "type": "bytes4"
        }
      ],
      "name": "supportsInterface",
      "outputs": [
        {
          "internalType": "bool",
          "name": "",
          "type": "bool"
        }
      ],
      "stateMutability": "view",
      "type": "function"
    },
    {
      "inputs": [],
      "name": "symbol",
      "outputs": [
        {
          "internalType": "string",
          "name": "",
          "type": "string"
        }
      ],
      "stateMutability": "view",
      "type": "function"
    },
    {
      "inputs": [
        {
          "internalType": "uint256",
          "name": "tokenId",
          "type": "uint256"
        }
      ],
      "name": "tokenURI",
      "outputs": [
        {
          "internalType": "string",
          "name": "",
          "type": "string"
        }
      ],
      "stateMutability": "view",
      "type": "function"
    },
    {
      "inputs": [
        {
          "internalType": "address",
          "name": "from",
          "type": "address"
        },
        {
          "internalType": "address",
          "name": "to",
          "type": "address"
        },
        {
          "internalType": "uint256",
          "name": "tokenId",
          "type": "uint256"
        }
      ],
      "name": "transferFrom",
      "outputs": [],
      "stateMutability": "nonpayable",
      "type": "function"
    }
  ],
  "bytecode": "0x60806040523480156200001157600080fd5b506040518060400160405280601281526020017f4669656c6432467269646765204167656e7400000000000000000000000000008152506040518060400160405280600481526020017f463246410000000000000000000000000000000000000000000000000000000081525081600090816200008f919062000324565b508060019081620000a1919062000324565b5050506200040b565b600081519050919050565b7f4e487b7100000000000000000000000000000000000000000000000000000000600052604160045260246000fd5b7f4e487b7100000000000000000000000000000000000000000000000000000000600052602260045260246000fd5b600060028204905060018216806200012c57607f821691505b602082108103620001425762000141620000e4565b5b50919050565b60008190508160005260206000209050919050565b60006020601f8301049050919050565b600082821b905092915050565b600060088302620001ac7fffffffffffffffffffffffffffffffffffffffffffffffffffffffffffffffff826200016d565b620001b886836200016d565b95508019841693508086168417925050509392505050565b6000819050919050565b6000819050919050565b600062000205620001ff620001f984620001d0565b620001da565b620001d0565b9050919050565b6000819050919050565b6200022183620001e4565b6200023962000230826200020c565b8484546200017a565b825550505050565b600090565b6200025062000241565b6200025d81848462000216565b505050565b5b8181101562000285576200027960008262000246565b60018101905062000263565b5050565b601f821115620002d4576200029e8162000148565b620002a9846200015d565b81016020851015620002b9578190505b620002d1620002c8856200015d565b83018262000262565b50505b505050565b600082821c905092915050565b6000620002f960001984600802620002d9565b1980831691505092915050565b6000620003148383620002e6565b9150826002028217905092915050565b6200032f82620000aa565b67ffffffffffffffff8111156200034b576200034a620000b5565b5b62000357825462000113565b6200036482828562000289565b600060209050601f8311600181146200039c576000841562000387578287015190505b62000393858262000306565b86555062000403565b601f198416620003ac8662000148565b60005b82811015620003d657848901518255600182019150602085019450602081019050620003af565b86831015620003f65784890151620003f2601f891682620002e6565b8355505b6001600288020188555050505b505050505050565b61248f806200041b6000396000f3fe608060405234801561001057600080fd5b50600436106100ea5760003560e01c806370a082311161008c578063b88d4fde11610066578063b88d4fde1461025b578063c87b56dd14610277578063e985e9c5146102a7578063f2c298be146102d7576100ea565b806370a08231146101f157806395d89b4114610221578063a22cb4651461023f576100ea565b8063095ea7b3116100c8578063095ea7b31461016d57806323b872dd1461018957806342842e0e146101a55780636352211e146101c1576100ea565b806301ffc9a7146100ef57806306fdde031461011f578063081812fc1461013d575b600080fd5b610109600480360381019061010491906118e6565b610307565b604051610116919061192e565b60405180910390f35b610127610368565b60405161013491906119d9565b60405180910390f35b61015760048036038101906101529190611a31565b6103fa565b6040516101649190611a9f565b60405180910390f35b61018760048036038101906101829190611ae6565b610416565b005b6101a3600480360381019061019e9190611b26565b61042c565b005b6101bf60048036038101906101ba9190611b26565b61052e565b005b6101db60048036038101906101d69190611a31565b61054e565b6040516101e89190611a9f565b60405180910390f35b61020b60048036038101906102069190611b79565b610560565b6040516102189190611bb5565b60405180910390f35b61022961061a565b60405161023691906119d9565b60405180910390f35b61025960048036038101906102549190611bfc565b6106ac565b005b61027560048036038101906102709190611d71565b6106c2565b005b610291600480360381019061028c9190611a31565b6106e7565b60405161029e91906119d9565b60405180910390f35b6102c160048036038101906102bc9190611df4565b6107fa565b6040516102ce919061192e565b60405180910390f35b6102f160048036038101906102ec9190611e94565b61088e565b6040516102fe9190611bb5565b60405180910390f35b6000634906490660e01b7bffffffffffffffffffffffffffffffffffffffffffffffffffffffff1916827bffffffffffffffffffffffffffffffffffffffffffffffffffffffff19161480610361575061036082610956565b5b9050919050565b60606000805461037790611f10565b80601f01602080910402602001604051908101604052809291908181526020018280546103a390611f10565b80156103f05780601f106103c5576101008083540402835291602001916103f0565b820191906000526020600020905b8154815290600101906020018083116103d357829003601f168201915b5050505050905090565b600061040582610a38565b5061040f82610ac0565b9050919050565b6104288282610423610afd565b610b05565b5050565b600073ffffffffffffffffffffffffffffffffffffffff168273ffffffffffffffffffffffffffffffffffffffff160361049e5760006040517f64a0ae920000000000000000000000000000000000000000000000000000000081526004016104959190611a9f565b60405180910390fd5b60006104b283836104ad610afd565b610b17565b90508373ffffffffffffffffffffffffffffffffffffffff168173ffffffffffffffffffffffffffffffffffffffff1614610528578382826040517f64283d7b00000000000000000000000000000000000000000000000000000000815260040161051f93929190611f41565b60405180910390fd5b50505050565b610549838383604051806020016040528060008152506106c2565b505050565b600061055982610a38565b9050919050565b60008073ffffffffffffffffffffffffffffffffffffffff168273ffffffffffffffffffffffffffffffffffffffff16036105d35760006040517f89c62b640000000000000000000000000000000000000000000000000000000081526004016105ca9190611a9f565b60405180910390fd5b600360008373ffffffffffffffffffffffffffffffffffffffff1673ffffffffffffffffffffffffffffffffffffffff168152602001908152602001600020549050919050565b60606001805461062990611f10565b80601f016020809104026020016040519081016040528092919081815260200182805461065590611f10565b80156106a25780601f10610677576101008083540402835291602001916106a2565b820191906000526020600020905b81548152906001019060200180831161068557829003601f168201915b5050505050905090565b6106be6106b7610afd565b8383610d31565b5050565b6106cd84848461042c565b6106e16106d8610afd565b85858585610ea0565b50505050565b60606106f282610a38565b50600060066000848152602001908152602001600020805461071390611f10565b80601f016020809104026020016040519081016040528092919081815260200182805461073f90611f10565b801561078c5780601f106107615761010080835404028352916020019161078c565b820191906000526020600020905b81548152906001019060200180831161076f57829003601f168201915b50505050509050600061079d611051565b905060008151036107b25781925050506107f5565b6000825111156107e75780826040516020016107cf929190611fb4565b604051602081830303815290604052925050506107f5565b6107f084611068565b925050505b919050565b6000600560008473ffffffffffffffffffffffffffffffffffffffff1673ffffffffffffffffffffffffffffffffffffffff16815260200190815260200160002060008373ffffffffffffffffffffffffffffffffffffffff1673ffffffffffffffffffffffffffffffffffffffff16815260200190815260200160002060009054906101000a900460ff16905092915050565b600060076000815461089f90612007565b91905081905590506108b133826110d1565b6108ff8184848080601f016020809104026020016040519081016040528093929190818152602001838380828437600081840152601f19601f820116905080830192505050505050506110ef565b3373ffffffffffffffffffffffffffffffffffffffff16817f0d063c6022bff16d09991a9f91882ffa112f5fb2529136f65eb4c77bbd047e43858560405161094892919061207c565b60405180910390a392915050565b60007f80ac58cd000000000000000000000000000000000000000000000000000000007bffffffffffffffffffffffffffffffffffffffffffffffffffffffff1916827bffffffffffffffffffffffffffffffffffffffffffffffffffffffff19161480610a2157507f5b5e139f000000000000000000000000000000000000000000000000000000007bffffffffffffffffffffffffffffffffffffffffffffffffffffffff1916827bffffffffffffffffffffffffffffffffffffffffffffffffffffffff1916145b80610a315750610a308261114b565b5b9050919050565b600080610a44836111b5565b9050600073ffffffffffffffffffffffffffffffffffffffff168173ffffffffffffffffffffffffffffffffffffffff1603610ab757826040517f7e273289000000000000000000000000000000000000000000000000000000008152600401610aae9190611bb5565b60405180910390fd5b80915050919050565b60006004600083815260200190815260200160002060009054906101000a900473ffffffffffffffffffffffffffffffffffffffff169050919050565b600033905090565b610b1283838360016111f2565b505050565b600080610b23846111b5565b9050600073ffffffffffffffffffffffffffffffffffffffff168373ffffffffffffffffffffffffffffffffffffffff1614610b6557610b648184866113b7565b5b600073ffffffffffffffffffffffffffffffffffffffff168173ffffffffffffffffffffffffffffffffffffffff1614610bf657610ba76000856000806111f2565b6001600360008373ffffffffffffffffffffffffffffffffffffffff1673ffffffffffffffffffffffffffffffffffffffff168152602001908152602001600020600082825403925050819055505b600073ffffffffffffffffffffffffffffffffffffffff168573ffffffffffffffffffffffffffffffffffffffff1614610c79576001600360008773ffffffffffffffffffffffffffffffffffffffff1673ffffffffffffffffffffffffffffffffffffffff168152602001908152602001600020600082825401925050819055505b846002600086815260200190815260200160002060006101000a81548173ffffffffffffffffffffffffffffffffffffffff021916908373ffffffffffffffffffffffffffffffffffffffff160217905550838573ffffffffffffffffffffffffffffffffffffffff168273ffffffffffffffffffffffffffffffffffffffff167fddf252ad1be2c89b69c2b068fc378daa952ba7f163c4a11628f55a4df523b3ef60405160405180910390a4809150509392505050565b600073ffffffffffffffffffffffffffffffffffffffff168273ffffffffffffffffffffffffffffffffffffffff1603610da257816040517f5b08ba18000000000000000000000000000000000000000000000000000000008152600401610d999190611a9f565b60405180910390fd5b80600560008573ffffffffffffffffffffffffffffffffffffffff1673ffffffffffffffffffffffffffffffffffffffff16815260200190815260200160002060008473ffffffffffffffffffffffffffffffffffffffff1673ffffffffffffffffffffffffffffffffffffffff16815260200190815260200160002060006101000a81548160ff0219169083151502179055508173ffffffffffffffffffffffffffffffffffffffff168373ffffffffffffffffffffffffffffffffffffffff167f17307eab39ab6107e8899845ad3d59bd9653f200f220920489ca2b5937696c3183604051610e93919061192e565b60405180910390a3505050565b60008373ffffffffffffffffffffffffffffffffffffffff163b111561104a578273ffffffffffffffffffffffffffffffffffffffff1663150b7a02868685856040518563ffffffff1660e01b8152600401610eff94939291906120f5565b6020604051808303816000875af1925050508015610f3b57506040513d601f19601f82011682018060405250810190610f389190612156565b60015b610fbf573d8060008114610f6b576040519150601f19603f3d011682016040523d82523d6000602084013e610f70565b606091505b506000815103610fb757836040517f64a0ae92000000000000000000000000000000000000000000000000000000008152600401610fae9190611a9f565b60405180910390fd5b805160208201fd5b63150b7a0260e01b7bffffffffffffffffffffffffffffffffffffffffffffffffffffffff1916817bffffffffffffffffffffffffffffffffffffffffffffffffffffffff19161461104857836040517f64a0ae9200000000000000000000000000000000000000000000000000000000815260040161103f9190611a9f565b60405180910390fd5b505b5050505050565b606060405180602001604052806000815250905090565b606061107382610a38565b50600061107e611051565b9050600081511161109e57604051806020016040528060008152506110c9565b806110a88461147b565b6040516020016110b9929190611fb4565b6040516020818303038152906040525b915050919050565b6110eb828260405180602001604052806000815250611549565b5050565b8060066000848152602001908152602001600020908161110f919061232f565b507ff8e1a15aba9398e019f0b49df1a4fde98ee17ae345cb5f6b5e2c27f5033e8ce78260405161113f9190611bb5565b60405180910390a15050565b60007f01ffc9a7000000000000000000000000000000000000000000000000000000007bffffffffffffffffffffffffffffffffffffffffffffffffffffffff1916827bffffffffffffffffffffffffffffffffffffffffffffffffffffffff1916149050919050565b60006002600083815260200190815260200160002060009054906101000a900473ffffffffffffffffffffffffffffffffffffffff169050919050565b808061122b5750600073ffffffffffffffffffffffffffffffffffffffff168273ffffffffffffffffffffffffffffffffffffffff1614155b1561135f57600061123b84610a38565b9050600073ffffffffffffffffffffffffffffffffffffffff168373ffffffffffffffffffffffffffffffffffffffff16141580156112a657508273ffffffffffffffffffffffffffffffffffffffff168173ffffffffffffffffffffffffffffffffffffffff1614155b80156112b957506112b781846107fa565b155b156112fb57826040517fa9fbf51f0000000000000000000000000000000000000000000000000000000081526004016112f29190611a9f565b60405180910390fd5b811561135d57838573ffffffffffffffffffffffffffffffffffffffff168273ffffffffffffffffffffffffffffffffffffffff167f8c5be1e5ebec7d5bd14f71427d1e84f3dd0314c0f7b2291e5b200ac8c7c3b92560405160405180910390a45b505b836004600085815260200190815260200160002060006101000a81548173ffffffffffffffffffffffffffffffffffffffff021916908373ffffffffffffffffffffffffffffffffffffffff16021790555050505050565b6113c283838361156d565b61147657600073ffffffffffffffffffffffffffffffffffffffff168373ffffffffffffffffffffffffffffffffffffffff160361143757806040517f7e27328900000000000000000000000000000000000000000000000000000000815260040161142e9190611bb5565b60405180910390fd5b81816040517f177e802f00000000000000000000000000000000000000000000000000000000815260040161146d929190612401565b60405180910390fd5b505050565b60606000600161148a8461162e565b01905060008167ffffffffffffffff8111156114a9576114a8611c46565b5b6040519080825280601f01601f1916602001820160405280156114db5781602001600182028036833780820191505090505b509050600082602083010190505b60011561153e578080600190039150507f3031323334353637383961626364656600000000000000000000000000000000600a86061a8153600a85816115325761153161242a565b5b049450600085036114e9575b819350505050919050565b6115538383611781565b61156861155e610afd565b6000858585610ea0565b505050565b60008073ffffffffffffffffffffffffffffffffffffffff168373ffffffffffffffffffffffffffffffffffffffff161415801561162557508273ffffffffffffffffffffffffffffffffffffffff168473ffffffffffffffffffffffffffffffffffffffff1614806115e657506115e584846107fa565b5b8061162457508273ffffffffffffffffffffffffffffffffffffffff1661160c83610ac0565b73ffffffffffffffffffffffffffffffffffffffff16145b5b90509392505050565b600080600090507a184f03e93ff9f4daa797ed6e38ed64bf6a1f010000000000000000831061168c577a184f03e93ff9f4daa797ed6e38ed64bf6a1f01000000000000000083816116825761168161242a565b5b0492506040810190505b6d04ee2d6d415b85acef810000000083106116c9576d04ee2d6d415b85acef810000000083816116bf576116be61242a565b5b0492506020810190505b662386f26fc1000083106116f857662386f26fc1000083816116ee576116ed61242a565b5b0492506010810190505b6305f5e1008310611721576305f5e10083816117175761171661242a565b5b0492506008810190505b612710831061174657612710838161173c5761173b61242a565b5b0492506004810190505b60648310611769576064838161175f5761175e61242a565b5b0492506002810190505b600a8310611778576001810190505b80915050919050565b600073ffffffffffffffffffffffffffffffffffffffff168273ffffffffffffffffffffffffffffffffffffffff16036117f35760006040517f64a0ae920000000000000000000000000000000000000000000000000000000081526004016117ea9190611a9f565b60405180910390fd5b600061180183836000610b17565b9050600073ffffffffffffffffffffffffffffffffffffffff168173ffffffffffffffffffffffffffffffffffffffff16146118755760006040517f73c6ac6e00000000000000000000000000000000000000000000000000000000815260040161186c9190611a9f565b60405180910390fd5b505050565b6000604051905090565b600080fd5b600080fd5b60007fffffffff0000000000000000000000000000000000000000000000000000000082169050919050565b6118c38161188e565b81146118ce57600080fd5b50565b6000813590506118e0816118ba565b92915050565b6000602082840312156118fc576118fb611884565b5b600061190a848285016118d1565b91505092915050565b60008115159050919050565b61192881611913565b82525050565b6000602082019050611943600083018461191f565b92915050565b600081519050919050565b600082825260208201905092915050565b60005b83811015611983578082015181840152602081019050611968565b60008484015250505050565b6000601f19601f8301169050919050565b60006119ab82611949565b6119b58185611954565b93506119c5818560208601611965565b6119ce8161198f565b840191505092915050565b600060208201905081810360008301526119f381846119a0565b905092915050565b6000819050919050565b611a0e816119fb565b8114611a1957600080fd5b50565b600081359050611a2b81611a05565b92915050565b600060208284031215611a4757611a46611884565b5b6000611a5584828501611a1c565b91505092915050565b600073ffffffffffffffffffffffffffffffffffffffff82169050919050565b6000611a8982611a5e565b9050919050565b611a9981611a7e565b82525050565b6000602082019050611ab46000830184611a90565b92915050565b611ac381611a7e565b8114611ace57600080fd5b50565b600081359050611ae081611aba565b92915050565b60008060408385031215611afd57611afc611884565b5b6000611b0b85828601611ad1565b9250506020611b1c85828601611a1c565b9150509250929050565b600080600060608486031215611b3f57611b3e611884565b5b6000611b4d86828701611ad1565b9350506020611b5e86828701611ad1565b9250506040611b6f86828701611a1c565b9150509250925092565b600060208284031215611b8f57611b8e611884565b5b6000611b9d84828501611ad1565b91505092915050565b611baf816119fb565b82525050565b6000602082019050611bca6000830184611ba6565b92915050565b611bd981611913565b8114611be457600080fd5b50565b600081359050611bf681611bd0565b92915050565b60008060408385031215611c1357611c12611884565b5b6000611c2185828601611ad1565b9250506020611c3285828601611be7565b9150509250929050565b600080fd5b600080fd5b7f4e487b7100000000000000000000000000000000000000000000000000000000600052604160045260246000fd5b611c7e8261198f565b810181811067ffffffffffffffff82111715611c9d57611c9c611c46565b5b80604052505050565b6000611cb061187a565b9050611cbc8282611c75565b919050565b600067ffffffffffffffff821115611cdc57611cdb611c46565b5b611ce58261198f565b9050602081019050919050565b82818337600083830152505050565b6000611d14611d0f84611cc1565b611ca6565b905082815260208101848484011115611d3057611d2f611c41565b5b611d3b848285611cf2565b509392505050565b600082601f830112611d5857611d57611c3c565b5b8135611d68848260208601611d01565b91505092915050565b60008060008060808587031215611d8b57611d8a611884565b5b6000611d9987828801611ad1565b9450506020611daa87828801611ad1565b9350506040611dbb87828801611a1c565b925050606085013567ffffffffffffffff811115611ddc57611ddb611889565b5b611de887828801611d43565b91505092959194509250565b60008060408385031215611e0b57611e0a611884565b5b6000611e1985828601611ad1565b9250506020611e2a85828601611ad1565b9150509250929050565b600080fd5b600080fd5b60008083601f840112611e5457611e53611c3c565b5b8235905067ffffffffffffffff811115611e7157611e70611e34565b5b602083019150836001820283011115611e8d57611e8c611e39565b5b9250929050565b60008060208385031215611eab57611eaa611884565b5b600083013567ffffffffffffffff811115611ec957611ec8611889565b5b611ed585828601611e3e565b92509250509250929050565b7f4e487b7100000000000000000000000000000000000000000000000000000000600052602260045260246000fd5b60006002820490506001821680611f2857607f821691505b602082108103611f3b57611f3a611ee1565b5b50919050565b6000606082019050611f566000830186611a90565b611f636020830185611ba6565b611f706040830184611a90565b949350505050565b600081905092915050565b6000611f8e82611949565b611f988185611f78565b9350611fa8818560208601611965565b80840191505092915050565b6000611fc08285611f83565b9150611fcc8284611f83565b91508190509392505050565b7f4e487b7100000000000000000000000000000000000000000000000000000000600052601160045260246000fd5b6000612012826119fb565b91507fffffffffffffffffffffffffffffffffffffffffffffffffffffffffffffffff820361204457612043611fd8565b5b600182019050919050565b600061205b8385611954565b9350612068838584611cf2565b6120718361198f565b840190509392505050565b6000602082019050818103600083015261209781848661204f565b90509392505050565b600081519050919050565b600082825260208201905092915050565b60006120c7826120a0565b6120d181856120ab565b93506120e1818560208601611965565b6120ea8161198f565b840191505092915050565b600060808201905061210a6000830187611a90565b6121176020830186611a90565b6121246040830185611ba6565b818103606083015261213681846120bc565b905095945050505050565b600081519050612150816118ba565b92915050565b60006020828403121561216c5761216b611884565b5b600061217a84828501612141565b91505092915050565b60008190508160005260206000209050919050565b60006020601f8301049050919050565b600082821b905092915050565b6000600883026121e57fffffffffffffffffffffffffffffffffffffffffffffffffffffffffffffffff826121a8565b6121ef86836121a8565b95508019841693508086168417925050509392505050565b6000819050919050565b600061222c612227612222846119fb565b612207565b6119fb565b9050919050565b6000819050919050565b61224683612211565b61225a61225282612233565b8484546121b5565b825550505050565b600090565b61226f612262565b61227a81848461223d565b505050565b5b8181101561229e57612293600082612267565b600181019050612280565b5050565b601f8211156122e3576122b481612183565b6122bd84612198565b810160208510156122cc578190505b6122e06122d885612198565b83018261227f565b50505b505050565b600082821c905092915050565b6000612306600019846008026122e8565b1980831691505092915050565b600061231f83836122f5565b9150826002028217905092915050565b61233882611949565b67ffffffffffffffff81111561235157612350611c46565b5b61235b8254611f10565b6123668282856122a2565b600060209050601f8311600181146123995760008415612387578287015190505b6123918582612313565b8655506123f9565b601f1984166123a786612183565b60005b828110156123cf578489015182556001820191506020850194506020810190506123aa565b868310156123ec57848901516123e8601f8916826122f5565b8355505b6001600288020188555050505b505050505050565b60006040820190506124166000830185611a90565b6124236020830184611ba6565b9392505050565b7f4e487b7100000000000000000000000000000000000000000000000000000000600052601260045260246000fdfea26469706673582212204b7b8f3a051564367f7a7bfba6ce7a55b17f264b769b7cc0cf9903cfa9c9254b64736f6c63430008180033",
  "linkReferences": {},
  "deployedLinkReferences": {}
}